:10000000F0490020AD440000CF46010081440000CB
:1000100081440000814400008144000081440000CC
:10002000000000000000000000000000B53C0000DF
:1000300081440000000000004D3C000081440000AD
:10004000413D0000413D0000413D0000413D0000B8
:10005000413D0000413D0000413D0000413D0000A8
:10006000413D0000413D0000413D0000413D000098
:10007000413D0000413D0000413D0000413D000088
:10008000413D0000413D0000413D0000413D000078
:10009000413D0000413D0000413D0000413D000068
:1000A000413D0000413D0000413D0000413D000058
:1000B000413D0000413D0000413D0000413D000048
:1000C000413D0000413D0000413D0000413D000038
:1000D000413D0000413D0000413D0000413D000028
:1000E000413D0000413D0000413D0000413D000018
:1000F000413D0000413D0000413D0000413D000008
:10010000413D0000413D0000413D0000413D0000F7
:10011000413D0000413D0000413D0000413D0000E7
:10012000413D0000413D0000413D0000413D0000D7
:10013000413D0000413D0000413D0000413D0000C7
:10014000413D0000413D0000413D0000413D0000B7
:04015000413D00002D
:1001540053B94AB9002908BF00281CBF4FF0FF312A
:100164004FF0FF3000F00CB8ADF1080C6DE904CE8F
:1001740000F008F8DDF804E0DDE9022304B070477C
:10018400704700BF2DE9F04786468C460846089E16
:10019400154674461946002B40F0C1808542B2FAD8
:1001A40082F245D94AB1C2F1200300FA02FC95401B
:1001B40094402EFA03F343EA0C0C4FEA154EA8B20E
:1001C400230CBCFBFEF80EFB18CC08FB00F943EA39
:1001D4000C43994528D9EB1808F1FF3704D2994507
:1001E40002D9A8F102072B44A3EB0903A4B2B3FB81
:1001F400FEFC0EFB1C330CFB00F044EA0344A0425B
:1002040014D92C190CF1FF3304D2A04202D9ACF159
:1002140002032C44241A43EA07401EB1D4400023AD
:1002240034607360BDE8F0874746DDE76346F1E775
:1002340092BB431B01214FEA154EAFB2200CB3FB16
:10024400FEFC0EFB1C330CFB07F840EA0343984505
:1002540061D9EB180CF1FF3004D2984502D9ACF106
:1002640002002B44A3EB0803A4B2B3FBFEFC0EFB79
:100274001C330CFB07F744EA0344A7424DD92C195D
:100284000CF1FF3304D2A74202D9ACF102032C448F
:10029400E41B43EA0040C0E7C2F1200395409440C8
:1002A40020FA03F12EFA03F34FEA154E9040AFB251
:1002B4000343B1FBFEFC0EFB1C10190C0CFB07F8EE
:1002C40041EA0041884522D969180CF1FF3004D273
:1002D400884502D9ACF102002944A1EB08019BB284
:1002E400B1FBFEFC0EFB1C110CFB07F743EA0143B8
:1002F4009F420ED9EB180CF1FF3104D29F4202D970
:10030400ACF102012B44DB1B41EA004193E7604658
:10031400E3E76146F7E76046A4E76346B8E783424C
:1003240006D916B9002108467CE7C6E900E0F9E7DA
:10033400B3FA83F78FB9834201D3724508D8BEEB71
:10034400020460EB030301209C461EB9002169E707
:100354003846FAE7C6E9004CF8E7C7F1200CBB4081
:100364000EFA07F522FA0CF42EFA0CF1BA401C43EB
:1003740020FA0CF3B8404FEA144901431FFA84FEF3
:10038400B3FBF9F809FB18300B0C08FB0EFA43EA2F
:1003940000439A4540D9E31808F1FF3004D29A4546
:1003A40002D9A8F102002344A3EB0A0389B2B3FBE8
:1003B400F9F809FB183308FB0EFE41EA03418E45A8
:1003C4002CD9611808F1FF3304D28E4502D9A8F163
:1003D4000203214443EA0040A1EB0E01A0FB029872
:1003E4004145CE46434602D306D14D4504D2013899
:1003F400B9EB020E68EB0403002EA7D0B5EB0E0296
:1004040061EB030101FA0CFC22FA07F3F9404CEA10
:100414000303C6E9003199E74046C5E74346D9E7F7
:1004240010F8012B11F8013B012A28BF9A42F7D09A
:10043400D01A7047034611F8012B03F8012B002A48
:10044400F9D17047034613F8012B002AFBD1181A7F
:100454000138704780B50138072898BF0A4B00AFB0
:1004640088B088BF00236A4698BF1B560749C2E973
:100474000513032342F8103F00234FF4C6510448E8
:1004840002F0B8FCBD4680BD547B0100B87A01007F
:100494007C71010090B587B06C4600AF88B06A46A5
:1004A400314B5361314B93614FF400739383304B61
:1004B40042F8103F2F4800234FF4E65102F09AFC13
:1004C4002D48A5460CF014FC70B188B06A462B4B3D
:1004D400C2E90530032342F8103F00234FF4C25110
:1004E400244802F087FCA5460CF0C6FB78B16C46A4
:1004F40088B06A46224BC2E90530032342F8103F14
:1005040000234FF4C2511B4802F074FCA54600F0CE
:100514005BF878B16C4688B06A461A4BC2E905307C
:10052400032342F8103F00234FF4C251114802F054
:1005340061FCA546144B7B6102233B614FF4865159
:1005440000230C4807F1100202F054FC00214C1C5B
:10055400002001F001010CF05FFC00214FF4004089
:1005640011F05AF92146F2E7CB7A0100DC7A010056
:10057400030000017C7101005D310100F57A010086
:10058400137B01002E7B0100497B010098B500AF6D
:1005940078B16C4688B06A46084BC2E9053003233B
:1005A40042F8103F00234FF4C251054802F022FCE8
:1005B400A54604480FF046FABD4698BD5C7B010091
:1005C4004C72010070050020B0B586B06D4600AFD6
:1005D400154B7B6102233B6100234FF48651134882
:1005E40007F1100202F006FC114806F0FBF804467D
:1005F40090B188B06A460F4BC2E90530032342F834
:10060400103F00234FF4C251084802F0F3FBAD46FB
:1006140020461837BD46B0BD4FF0FF324FF0FF33D0
:1006240005480FF053FAF3E7727B01004C720100A6
:10063400910500005C7B0100700500202DE9F04F5E
:1006440091B0009302F004030293C2F3C203013396
:10065400840705460E46DDF868800392059340F052
:10066400F681041D30B1072909D86FF01B0011B0C1
:10067400BDE8F08F01F00706341DC6F108064FF0FF
:1006840000094FF0040B009B4F46013B01934FF0D0
:10069400FF324B46DA46CDF810900DB10099216037
:1006A4000598002800F3D78098480099814203D325
:1006B40097488142C0F0CF800399A4EB050E8907C7
:1006C4004FEA9E0040F1E2804FF0000CCCE07A2823
:1006D4005AD84B280CD8472856D829282AD8252850
:1006E40051D051D8202877D023384342434173E076
:1006F4004C382E2848D8DFE800F06F474747474773
:100704004747474747474947474747474747475961
:100714004749495959596F496C476F471849184710
:1007240047807D49474749477D00002000234FF01B
:10073400040B39E001212A38C0B201FA00F010EAB2
:100744000E0F49D110F0625C30D110EA010343D09E
:100754006046013C5C44B4FBFBF40BFB04F4002D49
:1007640060D0AAEB050CA4446645FFF47EAF0028D4
:100774006AD1BAF1040F45D158F8040B20604FF048
:10078400040A043428E0013A002325E0019B13F80D
:10079400013C6C2B33D10020019B13F8023C6C2BE1
:1007A4000346C4D14FF0080BDA46D2E708F1070834
:1007B40028F00708073424F00704F8E802AB35B141
:1007C40006982044B0423FF650AFC4E900AB002382
:1007D40008344FF0080BDA46019911F8010F019122
:1007E400002800F0BC80002B7FF471AF2528F3D1E2
:1007F400012301324FF0040BEDE7184696E7002081
:100804000346A6E7BAF1080F40F09B8008F10708F9
:1008140028F00708F8E80201C4E900014FF0080ACB
:100824000834D9E780B9BAF1040F02D108F10408F9
:10083400A5E7BAF1080F40F0848008F1070828F012
:10084400070808F10808E9E705990139059158F8FE
:10085400041B009121E7039988074AD54FF0010C46
:10086400A4EB050E4FEA9E00BEF5007F1ED3294976
:1008740040F27B23284A294812F01CFF284812F032
:1008840019FF40F27B21244812F00DFF0F2F0FD8DF
:10089400002D49D007F140010DEB010C0CF8200CA0
:1008A4000CF8102C04980130049021E00F2F0CD97F
:1008B40018494FF42073184A184812F0FBFE1948DF
:1008C40012F0F8FE4FF42071DDE7CDB107F14001DD
:1008D4000DEB010EC0B20EF8200C0EF8102CBCF17A
:1008E400000FDFD060F07F000EF8200C09F1010941
:1008F4000137C5F108014FF6DA7E043406916BE73F
:10090400BCF1000F10D00136F2E700BFE06D01002A
:100914006CC40100BBAD01008F7B0100BD7B0100F5
:10092400DA7B0100FB7B0100029802360028DFD14C
:100934000098CDE90632FFF785FDDDE9063206446D
:10094400D6E740F2C523434A4349444812F0B2FE75
:100954005146434812F0AEFE40F2C52193E7631BB3
:10096400B3F5806F0CD33C4940F2D123394A3B485C
:1009740012F0A0FE3B4812F09DFE40F2D12182E726
:100984001DB9A6F10804E01871E6029A9B082860D4
:100994002B709DF81030C2B1EB7085F80290B9F15C
:1009A400000F05D0002208A8C5F1010C97420ED112
:1009B4004FF0000AC5F101030DF1200801930DF178
:1009C400300B574512D1601B51E66B70E5E710F808
:1009D400013B190608D504EB0C0E764503F07F03A2
:1009E400FFF443AE04F8013B0132DFE7B9F1000F35
:1009F40003D098F90020002A17DB029BD3B11AF820
:100A04000B2004F8012B0022019B981820448642F5
:100A1400FFF42BAE98F80000009904F8010B20466F
:100A2400039216F0B4F9039A14440AF1010A08F186
:100A34000108C6E798F8002055F822300093029B7D
:100A4400009845F82230FFF7FDFC421CDCE76FF00C
:100A54000D000CE68F7B0100BBAD0100BD7B0100E6
:100A6400157C01002A7C01002DE9F04F95B000AF00
:100A74008A4604467A62BB6158B9A8494FF4657343
:100A8400A74AA84812F016FE4FF46571A44812F064
:100A94000AFEBB6F90F802B0C3F3C0033B6141B9D7
:100AA400457800780BEB80002044554517D8A0EB1F
:100AB400040AE3787B61BBF1000F02D0BB6FD80757
:100AC40016D47B6953BB7B6A1BB151462046BA6975
:100AD4009847554628465437BD46BDE8F08F461C16
:100AE4003046FFF7AFFC013030440AF1010ADCE77D
:100AF400237862683B629B00FB603B6AFA6104EB0B
:100B040083097B6A002B40F00081C84600265546C5
:100B140009EB0B0AC24551D1D94413E0BB6F9907C5
:100B2400D1D5237899463B629B00FB60636804EB54
:100B34008909FB617B6A002B7AD15546BBF1000F12
:100B44004FD15E46BB6F13F0050F0CBF4FF0020B85
:100B54004FF0010B7B6909EB430ABB6F03F00203FF
:100B64007B62D145B6D019F8021B19F8013C54F840
:100B740023806D4B984502D36C4B984538D33B6921
:100B8400002B42D0F86912F01EFB00283DD0E84645
:100B94008AB06A46664B5361FB69C2E906314FF479
:100BA40000731384634B42F8103F00234FF4125137
:100BB400614802F01FF9023DC546D2E718F8013B2F
:100BC40054F82300FFF73EFCFB6F01303BB1D7F82C
:100BD40080309E423EBFFB6F23F816000136054469
:100BE40098E7BB6F13F004061CBF7E6AD944A9E7DB
:100BF4003B6923B1F86912F0E6FA0028C7D1BB6F4C
:100C0400DA0705D4A5EB0B05ABE77B6A002BA8D06C
:100C14004046FFF717FCFB6F43B1D7F880309E4284
:100C24003FBFFA6F431C22F816300136054498E79B
:100C3400BBF1000F6FD0BB6F13F004067ED0D84613
:100C4400002607F140005A46494616F0A0F87B6991
:100C5400D9445B007B607B6909EB4303BB60BB6FDA
:100C640003F002033B60BB68994569D1B96F6378AF
:100C7400B86F890748BF002106EB030258BF4FEA4B
:100C84005801C507D2B200F1DF8010F0040F14BF81
:100C940040460020FB616270A070E1702046BA6992
:100CA400F9687B6A9847051EFFF614AF3B6A414614
:100CB4002370FB69BA6963707B6984F802B0E370DE
:100CC40007F140007B6A9847B0F10008C0F2E98060
:100CD400FB68AAEB0B01C91A7B684846C91ABA69B2
:100CE4007B6A98470028C0F2DE804FF0000BA844CE
:100CF40008EB000507F1300AB345C0F0A7800021D6
:100D0400BA6908467B6A9847E4E65E464FF00008F5
:100D140007F1300097E75E46D84698E7417C01002A
:100D24008F7B0100BD7B0100E06D01006CC40100FC
:100D34005C7C010004000001DC710100B04686E720
:100D440019F8021B594B19F8015C54F82500984214
:100D540002D3574B984216D33B692BB1F86912F072
:100D640032FA00287FF47FAF3B68002B4AD00F2E65
:100D74003ED950494FF489634F4A504812F09AFCC7
:100D84004FF4896182E63B692BB1F86912F01BFAD2
:100D940000287FF468AFBB6FDB070BD50F2E27D974
:100DA400444940F23E43444A444812F083FC40F232
:100DB4003E416BE6BB6F58077FF555AFB8F10F0F97
:100DC40009D93F4940F241433B4A3C4812F072FC86
:100DD40040F241415AE608F1280307F1280208F1DC
:100DE400010103EB020808F8105C5FFA81F83AE7A6
:100DF40006F1280307F12802711C9E1806F8205CEE
:100E0400CEB230E7B8F10F0F09D92D4940F24B4368
:100E1400294A2A4812F04EFC40F24B4136E608F1CA
:100E2400280307F1280208F1010003EB020C07F183
:100E3400500308F1020853FA80F00CF8101C5FFA12
:100E440088F800F8105C0EE7002023E71BF80A304E
:100E540054F8239087F82F30FB6FFBB133F81B80D5
:100E64000121BA697B6A07F12F00984700281ADB31
:100E74000544B8F1000F06D14846FFF7E3FA00F144
:100E840001081FFA88F841464846BA697B6A9847C0
:100E9400002808DB05440BF1010B2DE7D7F87C8013
:100EA400DEE7454616E6054614E600BFE06D0100A0
:100EB4006CC40100FF7C01008F7B0100BD7B01003D
:100EC4001E7D0100014B1860704700BF68010020BF
:100ED40080B505460E461746984610F0D1FC0346E9
:100EE40015F072FF0446DFF81890424649F80030C6
:100EF40039463046A84754F8090003F04FFB00BFB9
:100F040008000000F8B50F4600293BD0066801220E
:100F1400304612F0C6F901460446304612F089F90B
:100F2400C3070DD4AF23184A1849194812F0C2FB5D
:100F34003946184812F0BEFBAF21134812F0B3FB38
:100F44002146304612F08BF92518294600223046F6
:100F540012F06FF92D1AAC420BD0B7230A4A0E498E
:100F64000B4812F0A7FB39460C4812F0A3FBB7213B
:100F7400E3E72146304612F078F92146BDE8F8400F
:100F840012F0B4BAF8BD00BF4F7D0100707D0100BE
:100F9400BD7B0100817D0100B97D0100DF7D010081
:100FA4002DE9F8430F4606681446B2684B1EB2F5A5
:100FB400004F34BF042108213B4010D0C7F1000981
:100FC40009EA0709494503F1FF3028BF4946184299
:100FD4000CD11F46DCB900252846BDE8F8838F42B2
:100FE40013D82146BDE8F84312F0C2BA2E494FF493
:100FF400A2732E4A2E4812F05DFB2E4812F05AFBC3
:101004004FF4A271294812F04EFB9946E2E7B2EB85
:10101400D40FE0D9E319591A104612F04CF90146DD
:10102400304612F0A2F980460028D4D0B36809EB08
:10103400C005B3F5004F34BF042308231D443544D1
:101044007B1E1D44B5FBF7F57D43A5EB0905294639
:10105400304612F026F92C44073424F00704A41B6C
:10106400804507464FEAE40408D20246414630462A
:1010740012F0B5F94146304612F0F6F939463046D9
:1010840012F0EDF83844844208D2394630462246FC
:1010940012F0A5F92146304612F0E6F9012239464C
:1010A400304612F0E2F897E71B7E01004F7D010005
:1010B400BD7B0100367E0100B2F5802F2DE9F041A1
:1010C40010D2042A28D843494FF4F973424A4348BA
:1010D40012F0F0FA424812F0EDFA4FF4F9713E487A
:1010E40012F0E1FA0823D21ACC1D114424F00704AB
:1010F40021F00701091B17294FEAD1060ED83949F7
:1011040040F2FB13344A354812F0D4FA344812F052
:10111400D1FA40F2FB11E2E70423E4E7002704607C
:1011240031463046A660E76012F0CEF80121421D38
:101134008046304612F0BFF89200D51DED082844D1
:10114400B0423AD8B8F1FF3F3946A2F1100204F197
:101154001000B8BF3A4615F027FE2A463946204605
:1011640012F09BF83B463A463946204612F06CF89A
:10117400A6EB050820463946012212F076F84246CD
:10118400294612F08AF82B463A462946204612F0A0
:101194005BF83146204612F080F843463A46314621
:1011A400204612F051F831462046012212F05DF833
:1011B4002946BDE8F04112F057B90B494FF40373C7
:1011C400054A064812F076FA054812F073FA4FF40D
:1011D400037184E7537E01004F7D0100BD7B010054
:1011E400747E01008D7E0100B67E01002DE9F84F6A
:1011F4000446A38B08461907154612D4022803F0A7
:10120400070164D1204612F0E5F988B101380428B9
:1012140000F23481DFE810F05B0032018100D1007C
:10122400010101280CBF43F0100143F02001A18308
:10123400143420460EF06AF9002840F09B81984946
:10124400F023984A984812F035FA2146B0E003F0AA
:101254000702501F01281ED80020062A2768C4E967
:10126400000014D13A4603E0E08B0130E0831268B9
:10127400002AF9D123F0070343F002022046A28397
:1012840012F0A8F990B342F02002A2832EE023F0DA
:1012940007039AB2F2E7042A33D123F007039AB280
:1012A4002046A28312F096F910B142F02002A283E4
:1012B400A38B03F00709894540F0EA80A18BCA0695
:1012C40040F14F8121F01003A38301F00701D4F80A
:1012D4001880A38BB8F1000FB9DA0022276823F035
:1012E4000703C4E9002243F00103A383A38B03F0A3
:1012F4000709894540F0CD80002FDFD00026B24693
:1013040044E06A4940F21B13694A674812F0D2F973
:1013140040F21B11664812F0C6F949B165494FF411
:10132400AB73634A604812F0C5F94FF4AB71F1E74F
:1013340023684BB9604940F257135D4A5A4812F08A
:10134400B9F940F25711E5E723691E684EB95B49C4
:101354004FF4AD73564A544812F0ACF94FF4AD71E2
:10136400D8E70F4688464FF00609A38B23F00703FE
:1013740043F006039BB2A383A268002A40F08B804B
:10138400002F40F08B80002E98D0BA4643F008031B
:1013940004F1140B5846A3830EF0B8F8002840F06B
:1013A40097803F49F0233F4A3F4812F083F959465A
:1013B400434812F07FF9F021AEE0022909D04149F7
:1013C40040F25D133A4A384812F074F940F25D1164
:1013D400A0E7E78B4FB13C494FF4AF73344A32482E
:1013E40012F068F94FF4AF7194E723695E684EB95F
:1013F400324940F261132E4A2B4812F05BF940F255
:10140400611187E7A38BB84623F0070343F0040375
:101414009BB24FF00409A383AEE7012909D02B49FD
:101424004FF4B273224A204812F044F94FF4B271D7
:1014340070E723684BB9204940F265131C4A1A48E7
:1014440012F038F940F2651164E723699E684EB9D9
:101454001A494FF4B473164A134812F02BF94FF497
:10146400B47157E70027A38BB84623F0070343F072
:1014740005039BB24FF00509A3837DE70B4940F2B6
:101484006B130B4A084812F015F940F26B1141E74F
:101494000027002670E74FF0010A77E7924675E7C8
:1014A400B17F0100847F0100BD7B0100BBAD010061
:1014B400E17E0100037F01000F7F0100327F010004
:1014C400C87F0100497F01005F7F01006E7F01003A
:1014D40085F31188BFF36F8FBAF1000F1ED1002F6F
:1014E4002FD116B120462649B0474FF02003EFF321
:1014F400118583F31288BFF36F8F58460DF0F8FF00
:1015040038BB72231F4A2049204812F0D3F85946A9
:101514001F4812F0CFF872211A48FCE6A16800298E
:10152400DDD00D680029DAD043464A462046D1F87A
:1015340004A0D0471DB12B6829461D46F2E72B466F
:10154400FAE7394643464A4620463F6812F06EF8A9
:10155400C5E758460DF0E8FFA38B23F00803A383E7
:10156400ACE68B067FF564AE21F02003A38301F083
:10157400070147E685F31188BFF36F8FBDE8F88F45
:1015840099150000847F0100DD7F0100BD7B01000F
:10159400F27F0100F8B504460D4600F114064FF041
:1015A4002003EFF3118783F31288BFF36F8F304664
:1015B4000DF09EFF68B972230B4A0C490C4812F0D7
:1015C40079F831460B4812F075F87221064812F08A
:1015D4006AF830460DF0A8FFA5613A462046BDE8FA
:1015E400F8400121FFF702BE847F0100DD7F010086
:1015F400BD7B0100F27F01002DE9F04704460F4650
:1016040012F004F8051E67DB04F114094FF02003FF
:10161400EFF3118A83F31288BFF36F8F48460DF0FE
:1016240067FF804660B97223374A3849384812F058
:1016340041F84946374812F03DF87221324840E0FB
:1016440048460DF071FF4FF6FF72E38BA68B934271
:1016540006F0070643D0022E13D135460133E38347
:1016640048460DF053FF00283FD1F023264A2A496B
:10167400274812F01FF84946284812F01BF8F021B9
:10168400DCE7062E13D8DFE806F0092D1212090450
:1016940009006FF085054FF00008E1E700233B6087
:1016A400636883B9C4E9007786B13546F3E71C491A
:1016B40017484FF4E4731B4A11F0FCFF4FF4E47134
:1016C400184811F0F0FF1F606760EDE752460221F1
:1016D4002046FFF78BFD35462846BDE8F0876FF0BE
:1016E4000A05D8E76FF00405D5E78AF31188BFF33C
:1016F4006F8FB8F1000FEFD00023324639462046F1
:1017040011F094FFE8E700BF847F0100DD7F010052
:10171400BD7B0100F27F0100B17F0100C87F0100A1
:101724006E7F0100E17E010008B54268034602F0C5
:101734000302022A81600AD0032A4FF0000103D079
:10174400012A0AD1596006E01868596008BD186872
:1017540000225A6058B90020F8E706490648452394
:10176400064A11F0A7FF4521044811F09CFF11F02F
:1017740007F8F0E7BBAD0100BD7B01000880010064
:1017840038B50D4604462022002115F00DFB002239
:10179400EB68E361AB68A3612B6823626B68A262A8
:1017A40063622A6923B1591E194208BF42F001023B
:1017B40022610122002104F12C0015F0C6F848B181
:1017C400054906482E23064A11F074FF2E210448C9
:1017D40011F069FF38BD00BF51800100BD7B0100DD
:1017E4002B8001002DE9F04F002789B0CDE90123BA
:1017F400436A04468B428846BA460597079753D3F3
:1018040000F114064FF02003EFF3118B83F31288D9
:10181400BFF36F8F3046D9460DF06AFE58B9722374
:101824004A4A4B494B4811F045FF31464A4811F0AA
:1018340041FF72215EE030460DF076FE079A2AB130
:101844003946204612F017F80023079306A92046CC
:1018540011F03DFF0699054641452ED32268236ABF
:10186400204613F8221003EB820A21F0030103F847
:1018740022102168424611F04EFFE368206098422E
:1018840016D0002530460DF041FE40B389F311888F
:10189400BFF36F8F059929B1A2690AB12046904719
:1018A40000230593002DADD1504609B0BDE8F08F5B
:1018B400236943F008032361E3E718B1204611F0DC
:1018C40044FFDFE7DDE90132134336D0039114F01E
:1018D400EEFF039988BB30460DF018FE68B9F0237B
:1018E4001A4A1E491B4811F0E5FE31461C4811F006
:1018F400E1FEF021154811F0D6FE8BF31188BFF3F9
:101904006F8F04F12C00DDE901230EF0DFF80546AA
:101914004FF02003EFF3118983F31288BFF36F8F25
:1019240030460DF0E5FD00283FF479AFB5FA85F5B2
:1019340030460DF0F9FD6D09A4E7204607AB05AA72
:10194400276811F021FF05469CE700BF847F010052
:10195400DD7F0100BD7B0100F27F0100B17F01004A
:10196400C87F01002DE9F0410446C36908460E46CC
:10197400984704F1140507464FF02003EFF311884C
:1019840083F31288BFF36F8F28460DF0B1FD68B959
:101994007223194A19491A4811F08CFE294619482C
:1019A40011F088FE7221144811F07DFE28460DF0D6
:1019B400BBFD33783A4643F0010333706168204637
:1019C40011F0A9FE6060204611F070FF28460DF06A
:1019D4009DFD58B9F023084A0B49094811F06AFEE5
:1019E40029460A4811F066FEF021DCE788F31188E5
:1019F400BFF36F8FBDE8F081847F0100DD7F0100BC
:101A0400BD7B0100F27F0100B17F0100C87F0100AE
:101A14002DE9F843044600F114074FF02003EFF3D7
:101A2400118883F31288BFF36F8F38460DF060FD81
:101A3400054668B97223344A3449354811F03AFEF0
:101A44003946344811F036FE72212F4811F02BFE2E
:101A540038460DF069FD2369A26813F0080F02D11E
:101A640063689A4200D9636A9B1A002B3DD0216AAD
:101A740011F8223001EB820913F0030038D0022858
:101A840003D151F82260B60805D1D8071DD44846C1
:101A9400E36998470646A1683246204611F03BFEAA
:101AA4003146A060204611F044FE38460DF02EFD6C
:101AB40000BBF023144A1849154811F0FBFD3946C0
:101AC400164811F0F7FDF021BFE743F0020301F8D7
:101AD4002230E3694846A5689847294602462046CD
:101AE40011F019FE0025A060DFE71D46A946DCE7DA
:101AF4000546FBE788F31188BFF36F8F002D8CD167
:101B04004846BDE8F88300BF847F0100DD7F010003
:101B1400BD7B0100F27F0100B17F0100C87F01009D
:101B24002DE9F0410446C36908460D46984704F17F
:101B3400140607464FF02003EFF3118883F312884D
:101B4400BFF36F8F30460DF0D3FC68B97223264A79
:101B54002649274811F0AEFD3146264811F0AAFD6A
:101B64007221214811F09FFD30460DF0DDFC2B78E9
:101B74006FF300032B7023699B0705D5E268236A82
:101B840003EB82039D4220D12B786FF341032B702A
:101B9400D4E90231994204D13A46204611F0BBFD02
:101BA400A0603946204611F0C4FD30460DF0AEFC6D
:101BB40080B9F0230C4A10490D4811F07BFD3146E1
:101BC4000E4811F077FDF021CBE72B6867F39F03F4
:101BD4002B60EAE788F31188BFF36F8F04F12C00C0
:101BE400BDE8F0410DF02EBF847F0100DD7F0100D0
:101BF400BD7B0100F27F0100B17F0100C87F0100BD
:101C0400044608B54FF02002EFF3118382F31288E3
:101C1400BFF36F8F0AF0B0FC204602F075FC034856
:101C240011F0FAFA01F0E8FEFCE700BF5A80010067
:101C340008B543090DD0012B1CD01349134840F2B9
:101C44002F33134A11F036FD40F22F31104811F0B2
:101C54002AFD4FF0FF33C340DA07EED50D4B03EBFB
:101C64008003D3F8002222F0E04242EA0171C3F873
:101C7400001208BD4FF6FF7300F01F00C340DB07DE
:101C8400DBD5054BEBE700BFB6800100BD7B01004F
:101C940083800100002584500028845038B5012435
:101CA400134B144DC3F8004502230321C5F8D03665
:101CB4000020FFF7BDFF20460321FFF7B9FFC5F859
:101CC40004472146C5F804492120C5F8004BFFF715
:101CD400AFFF21462020FFF7ABFF21460B20FFF783
:101CE400A7FF21460A20FFF7A3FF002038BD00BF4D
:101CF400001000500040005007B50DF1070014F02B
:101D040053F8114B98421CD14FF480620F4B104989
:101D1400C3F8B8254FF40062C3F83C259DF80700CA
:101D24000BF016FA0B499DF807000BF0F9F90120A6
:101D34009DF8073098400BF0E7F9002003B05DF8F8
:101D440004FB6FF00B00F9E70000AD0B00A002509C
:101D54002CA0025028A10250052370B5144D154E35
:101D64002C780134B4FBF3F303EB8303E41A13F08C
:101D7400FBFF114A137823B156F82430C01A072800
:101D840014D94FF05023D3F8141141B10021C3F8F2
:101D94001411D3F814312C700CB9012313702C785E
:101DA40013F0E2FF46F82400012070BD0020FCE798
:101DB40091210020301600209021002048B1054BCD
:101DC400054A1B68B3FBF2F35843044B43F0010389
:101DD40018477047D402002040420F0000730100EE
:101DE4000F2AF8B50446154608461F460BD90F4975
:101DF4000F4840F2E7130F4A11F05CFC40F2E71180
:101E04000C4811F050FC0AF05FF90B4EAD0001468E
:101E14002E4420462FB144F000440BF099F934606D
:101E2400F8BD0BF0C3F93760FAE700BF0F8101007A
:101E3400BD7B0100DD80010080A10250F0B583B0BC
:101E440000AF381D0BF0CEFB254B984244D10AF06D
:101E540017FB041E13DA38790BF0CAFB6D4688B001
:101E64006A46204BC2E90534032342F8103F00239D
:101E74004FF4C2511C4800F0BDFFAD4628E040F6C7
:101E840007031A4D7C71AE68FB8074687B6814B9D3
:101E94006FF05704E2E708212846154AA047041EBC
:101EA400DCDB3369002BF3D0012208212846984754
:101EB400041ED3DB0125387905FA00F00BF024F970
:101EC4002B46FA7979793879FFF78AFF002CC5D146
:101ED40020460C37BD46F0BD6FF01204BEE700BFCC
:101EE4000000AD0B1A8101005C720100E06E01007C
:101EF400851F000070B5049EC6F30744F5B2C6F30F
:101F0400072630460AF0C6F80F2C01460BD91549AE
:101F1400154840F2E113154A11F0CCFB40F2E111EF
:101F2400124811F0C0FB28460BF02AF900220120C8
:101F34000F4BA400E4B21A51A8400BF0EBF8304662
:101F44000AF0BCFA28460BF053FB0A4B984208D01F
:101F5400094905487523094A11F0ACFB7521074866
:101F6400DFE770BD0F810100BD7B0100DD80010052
:101F740080A002500000AD0B798101004281010074
:101F84002DE9F743144683681B694BB9224923485A
:101F9400CB23234A11F08EFBCB21214811F083FB84
:101FA4000022984706460028F0D1C4F3072840468B
:101FB4000AF0A4F85FFA84F941463346220E074634
:101FC4004846FFF70DFF40460AF064F8C4F307459E
:101FD4000F2D01460AD91349104840F2E113124A61
:101FE40011F068FB40F2E1110F48D7E70F4BAD0049
:101FF40049F00042EDB25A5148460BF091F80C4BAF
:1020040007F13202009340463346019452000AF02D
:1020140045F903B0BDE8F08351800100BD7B0100A8
:10202400428101000F810100DD80010080A0025087
:10203400F91E00000AF04ABF7FB570B9124B13486D
:10204400059302234FF4825104AA049311F049FC2E
:102054006FF0150007B05DF804FB836863B90C4B9F
:102064000A48059302234FF4825104AA049311F001
:1020740038FC6FF00400EDE71B681BB107B05DF896
:1020840004EB18471846E5E796810100FC7101004E
:10209400A781010030B587B008B101B16AB9134B0B
:1020A4001348059302234FF4825104AA049311F0B8
:1020B40018FC6FF0150007B030BD84680CB1E568FA
:1020C40065B90C4B0A48059302234FF4825104AAC4
:1020D400049311F006FC6FF00400ECE741F8040BE4
:1020E400E36807B0BDE83040184700BFC581010070
:1020F400FC710100A781010030B51346044687B086
:1021040068B91A4B1A48059302234FF4825104AA62
:10211400049311F0E6FB6FF0150007B030BD0068C2
:1021240060B9144B1248059302234FF4825104AA58
:10213400049311F0D6FB6FF00100EEE782680AB158
:10214400956865B90C4B0A48059302234FF48251F4
:1021540004AA049311F0C5FB6FF00400DDE70A46FE
:10216400AC46616807B0BDE830406047F1810100CA
:10217400FC71010002820100A78101000020014BD3
:10218400186070470000072030B50C460E4985B032
:102194000291D0F8AC110546CDE9003100F1E0011F
:1021A4004FF0FF3320460CF08DF950B9012384F829
:1021B4006430D5F8A83123B1204605B0BDE83040DD
:1021C400184705B030BD00BFDD39010038B50C46F5
:1021D4001146054611F002FC034638B92846044965
:1021E40011F0FCFB03460020236038BD0120FBE70F
:1021F40085A501002DE9F04F012381460569466854
:1022040085B005F55977D7E8EF2F002A03D1C7E841
:10221400E13F0029F7D10CBF1A46002240F0B180FB
:10222400B368B16A05F5E4781C1F104611F05BFC35
:1022340084425FD8013A00F09E80B2FA82F24FF0F5
:102244000044D44072682046073222F00302C5F8E5
:102254006022B16A11F047FCC5F86402B36A4046D3
:102264006343033323F0030302EB4302230103EB31
:102274004403093323F0030303EBC403C5F85822D2
:102284001A440832C5F854227368C5F85C42C5F88C
:1022940050323D4BC5E9A963316800F0BDF90446ED
:1022A40030BBD9F804A0D9F81090DAE9073409F55D
:1022B400307B012B584608BF103C0DF037FF00233C
:1022C400DAF8240031494FF4806201EB8021009355
:1022D400584623460DF044FF09F52C702C490DF0A7
:1022E40059FEDAF8140083685C682CB96FF057045F
:1022F400002139E0013298E74B46264ADAF81810F3
:10230400A04704460028F3D1DAF8140083681B6957
:10231400002BEBD00122DAF8181098470446002865
:10232400E6D11D4B2846C5F8A8311C4BC5F8AC3185
:102334001B4B0393D5F810320293D5F80832CDE93C
:102344000083D5F86832B26AD5F8601300F02CF92E
:1023540004460028CCD105F1E0000CF057FA00281F
:10236400C5F868030ADB0221384611F06CFB2046ED
:1023740005B0BDE8F08F6FF00B04B9E76FF01504FA
:10238400B6E76FF07704F2E7333A01004022002009
:10239400193A01000D3A0100A9230000C13B0100D4
:1023A4007B3A010013B5044640B100230122CDE974
:1023B4000032074BD0E909120CF038F8A36E1B6801
:1023C40023B1E06E02B0BDE81040184702B010BD62
:1023D40085A5010013B504460846216901F5597124
:1023E400D1E8AF1F022910D193B1A0B10121CDE9E9
:1023F40000311346D0E909120CF018F8074B984243
:1024040008BF6FF00B0002B010BD6FF00F00FAE7C9
:102414006FF04C00F7E76FF00100F4E72EF8FFFFD0
:102424002DE9F74388461546066906F55973D3E83E
:10243400AF3F022B5FD1136823B96FF0150003B0CF
:10244400BDE8F0831B78002BF7D0D6F86093B9F180
:10245400000F33D106F5D8774FF0FF324FF0FF333A
:1024640038460DF08DF830462A6801A9FFF7AEFE14
:10247400019C1CB9384611F0E4FADEE705F10803C3
:10248400A3666B6984F86490E366E46360B13846DC
:1024940011F0D7FA21463046236E2A68FFF774FEFE
:1024A4000020C8F80040CAE72022296804F140004F
:1024B40014F035FC384611F0C4FAF1E730460F4900
:1024C40011F08CFA04460028B7D005F1080383669E
:1024D4006B69C063C366002380F8643020222968D6
:1024E400403014F01CFC22460121304600F03EF836
:1024F4000028D5D0A1E76FF00F00A0E785A5010063
:102504002DE9F04F05460E4690460027D0F8B0A0BE
:1025140085B0AAF5AE7421463046FDF781FFE0B9D7
:10252400114BA4F1400B0293DAF810303246CDE996
:10253400008329464FF0FF335846AAF5CE790BF0B5
:10254400C1FF60B97023012203FB079383F8642061
:10255400DAF80C300BB158469847703417B105B00F
:10256400BDE8F08F0127D6E7233C01001FB51446D0
:1025740090B18AB1012912D10A4B00F1E001029312
:10258400D0F8AC31403201934FF0FF332046009332
:102594000BF098FF04B010BD6FF01500FAE70020AF
:1025A400F8E700BF233C01002DE9F04387B00E4655
:1025B400DDE90E811446DDE910251F4630B329B349
:1025C400DFF850C000F1E009002D08BF65469EB950
:1025D400CDE9034400F5CE742046059614F012F9B3
:1025E40003ABCDE900432A463B46414648460CF03E
:1025F40033F907B0BDE8F083002241460E92484605
:102604002A4607B0BDE8F0430CF050BA6FF015004D
:10261400EFE700BF05250000F0B50E46044689B07B
:1026240000286FD001230246C3630023D0F898101A
:10263400364F403040F80C7C42F8301FCDE901336E
:102644004FF0FF330093C36D13F047FC304A06ABE1
:1026540092E8030083E8030018460BF0F9FD0546F1
:10266400D8B904F134000BF0D5FD0546A8B93946B4
:10267400284805AA13F013FC054670B9059B9A680F
:1026840072B10C33D4F89400C4F8A03011F0F8FA05
:10269400C4F8D40030B96FF00B05284609B0F0BD7A
:1026A4000346EFE7D4F8940011F0EAFAC4F8D8002E
:1026B4000028F0D0D4F88C30D4F8A010C4F8A83096
:1026C4000423C4F8AC30C4F8C4300223A362124B10
:1026D400B4F89420D4F8D470C4F8B810C4F8D01066
:1026E400D4F89010236204F1A403A4F8B020C4F831
:1026F400A470C4F8C010A4F8C820C4F8BC00A66133
:10270400E362CAE76FF01505C7E700BF2C8201003A
:1027140080720100368201003473010030B500225A
:1027240089B00F490F4814F005FA00220023002451
:10273400CDE906230E230C4DCDE903344FF400629A
:102744002846CDE90144094B094900940CF006FEE2
:102754000849284614F0B1F8204609B030BD00BF3E
:10276400C1280000580F0020D00A0020992B000037
:10277400402600203E8201002DE9F047044607462A
:102784004FF00109DFF8508014B93846BDE8F087EE
:1027940094FAA4F5B5FA85F509FA05F32E0108EBC8
:1027A40005156FEA030A24EA03042B7B002BEBD004
:1027B40058F806301B694BB946447368042228460E
:1027C400196807EA0A0700F0EFFADDE72846984798
:1027D4000028D9D1F0E700BF6C7201002DE9F04761
:1027E400DFF8B8902E4C8046A9EB04039F2B0F46CC
:1027F4000BD92C4940F219132B4A2C4810F05AFFDC
:1028040040F21911284810F04EFF294811F08AFAB5
:10281400064660B300252846BDE8F087237B73B1E4
:102824002368DB680BB12046984723681B69B3B95A
:10283400636804222046196800F0B6FA01361034A1
:102844004C4518D91B494FF49373174A174810F095
:1028540031FF194810F02EFF4FF49371D2E7204650
:1028640098470028E4D00AFA06F31D43E6E7054634
:102874004FF0010AE4E7D1D3B8F1000FCBD0002D1B
:10288400C8D02846FFF778FF0546002FF7D000216F
:102894004FF4A4700EF0C0FFF1E700BF7C7201009A
:1028A4006C7201007382010046820100BD7B01004D
:1028B4005816002097820100B882010001480DF0EB
:1028C400C1B800BFA0050020014B53F82000704799
:1028D4007473010008B5034608462BB1044A13601B
:1028E40000F0A8FD002008BD6FF01500FBE700BF55
:1028F4009801002010B5044C237813B903480DF057
:10290400A1F80123237010BD92210020A00500200E
:1029140010B50446064811F005FA3CB1054BD3E85E
:10292400EF1F0139C3E8E21F002AF8D110BD00BF30
:10293400501600205416002000200146034BD3E813
:10294400EF0FC3E8E21F002AF9D1704750160020A8
:1029540070B5FFF7F1FF05460F4C104EB44219D97C
:102964000F4940F2D1130F4A0F4810F0A3FE0F484D
:1029740010F0A0FE40F2D1110A4810F094FE6368F2
:102984005B792BB123685B6813B1294620469847CD
:102994001034E3E7F3D370BD6C7201007C72010064
:1029A4009782010046820100BD7B0100B8820100CC
:1029B40010B5044C04492046FEF7E2FE034B1C60AC
:1029C40010BD00BF600400206073010048160020A1
:1029D40008B50023074A4FF400411370064A07481C
:1029E4001360074A1360FFF775FFBDE80840FFF75F
:1029F400DFBF00BF9321002050160020253D0100B9
:102A0400541600200146002200230148FEF7EABEC6
:102A1400600400200148FEF7FBBF00BF60040020F3
:102A2400024B01461868FFF77BB800BF4816002028
:102A3400014810F048BF00BF6004002070B52E4B61
:102A44001878002857D0FFF7E5FF054640B32B4B15
:102A5400D3E8EF1F0139C3E8E21F002AF8D1284C5C
:102A6400284EB44218D9284940F2C513274A2848A9
:102A740010F020FE274810F01DFE40F2C511234837
:102A840010F011FE63685B7923B123682946204660
:102A94001B6898471034E4E7F4D32846FFF7C0FFD7
:102AA4001D4B1E4C1B68002B19DD13F0FCFF4FF46B
:102AB4007A72A0FB020302FB0131C30B43EA4143D8
:102AC400D4E900209B1A40F2E9324FEAD13161EB9C
:102AD4000001934271F1000101D3FFF739FFD4E9FA
:102AE400003213F57A7342F10002C4E90032BDE802
:102AF4007040FFF79DBF70BD922100205416002046
:102B04006C7201007C720100978201004682010010
:102B1400BD7B0100B882010050160020500F002038
:102B240070B5154D297829BB0120FFF757FE134CCA
:102B3400134EB44217D913494FF4C473124A1348BD
:102B440010F0B8FD124810F0B5FD4FF4C4710E48F2
:102B540010F0A9FD63685B791BB1236820469B686C
:102B640098471034E5E7F5D3FFF768FF0028FBD159
:102B740001232B7070BD00BF932100206C720100F3
:102B84007C7201009782010046820100BD7B010036
:102B9400B88201002DE9F047304B314FFB1A1B0975
:102BA4000BD130494FF457732F4A304810F082FD4F
:102BB4004FF457712C4810F076FD00210846FFF7BA
:102BC4000DFE044650B340F267684FF0000914F05C
:102BD400FBF8274B274A1B58136033B1264B1B685D
:102BE400092B02DD25480CF02DFF0025DFF88CA011
:102BF40044B12046FFF7C0FD044618B94FF0FF3832
:102C04004FF0FF39FFF71AFF064628B95DB942466F
:102C14004B4650460CF05AFF3546E9E74FF0FF3873
:102C24004FF0FF39D3E70D4D08E0F0D22B689B69D4
:102C34001BB100222846114698471035BD42F4D9ED
:102C44000F494FF45473084A084810F033FD0D48F7
:102C540010F030FD4FF45471ACE700BF6C7201000A
:102C64007C720100D782010046820100BD7B010015
:102C7400080000004C16002054160020A005002077
:102C840097820100B882010013B52B4811F04AF86D
:102C94002A4B1B78002B34D04FF02003EFF3118420
:102CA40083F31288BFF36F8F25480CF021FC68B9B9
:102CB4007223244A2449254810F0FCFC2049244866
:102CC40010F0F8FC72211F4810F0EDFC1C480CF0C9
:102CD4002BFCFFF7B3FE1A480CF018FC58B9F0238C
:102CE400184A1C49194810F0E5FC15491A4810F017
:102CF400E1FCF021E7E784F31188BFF36F8F02B0A2
:102D040010BD164B1B68002BF9D050B900220023CC
:102D14001348CDE900234FF4004200230FF010FACA
:102D2400EDE70928EBD10E4813F010FF0D4802B06F
:102D3400BDE810400CF086BE5416002093210020FC
:102D440044160020847F0100DD7F0100BD7B01006B
:102D5400F27F0100B17F0100C87F01004C16002002
:102D6400580F0020A005002010B5064B04461B6830
:102D740098472146A0600448FEF7F4FDBDE81040E2
:102D8400FFF782BF9801002060040020044A054B2D
:102D94009B1AB1EBD30F34BF52F8310000207047B7
:102DA400647101006C7201000E4B10B5C31A1B1143
:102DB4000133DBB248B90C490C48DF230C4A10F04C
:102DC40079FCDF210A4810F06EFC446823714368E3
:102DD4009A7101224368196043685A71BDE8104032
:102DE400FFF788BD6C72010077830100BD7B010091
:102DF4003F8301002DE9F04F8FB0C1F34A2804AF9F
:102E04000D469146B8607B600C0DB8F1000F66D09A
:102E140000264FF0040B4FF00A0A07F11403C7F819
:102E24000C80C7E907667E620193CDF808B0CDF83F
:102E340000A007F11C0332464846F968FDF714FE6A
:102E4400B0F5006F03461CD36C468AB0D9F8041061
:102E540004AB2B481A46C3E9050140F2FF71D9615E
:102E64004FF400711984274B42F8103F4FF412516C
:102E740033462548FFF7BEFFA5462C37BD46BDE8BF
:102E8400F08FC0F30A0804F11700184420F007007B
:102E940080083B60FFF7B6FD68F35325044630B362
:102EA4003B6800F11001C7E9083607F11403F96122
:102EB400CDE900A3CDF808B04846144AF96807F1F3
:102EC4001C03FDF7D1FD002811DA114911485923DB
:102ED400114A10F0EFFB59210F4810F0E4FB04F104
:102EE400170020F007008008FFF78CFD044668F304
:102EF40053252A4620467B68B96810F045FFBCE795
:102F0400978301000400000104720100613D010087
:102F140003840100BD7B0100D68301002DE9F04F3D
:102F240087B00446DDE9105ADDE912690F4693467D
:102F34009846AEB11021334652460020CDF8009099
:102F4400CDF81490FDF77AFB011E0ADA1F497823A5
:102F54001F4A204810F0AEFB78211D4810F0A3FB57
:102F6400314605F1170008441B4B04F007040BF02D
:102F7400070BE40020F0070003EA412344EA8B1422
:102F840080081C430391FFF73DFD44EA05540546C0
:102F940090B18EB1334652460399CDF8009010306B
:102FA400FDF74CFB002807DA08499223084A094830
:102FB40010F080FB9221D0E743462246394628464A
:102FC40007B0BDE8F04F10F0DFBE00BF028401007F
:102FD400D6830100BD7B010000FE0F000EB403B5D3
:102FE40003AB53F8042B01460448019301F01EFD82
:102FF40002B05DF804EB03B0704700BF213000005D
:10300400CA0605D48B064CBF02490349FFF7E6BF45
:10301400704700BF84A50100D3B5010038B54B68E3
:1030240005461A68CB680C469A4202D1084610F04D
:10303400D1FE6368D3E8EF2F511CC3E8E01F0028DA
:10304400F8D1A3689D5463681A68E3689A4209D961
:10305400054906487A23064A10F02CFB7A210448D5
:1030640010F021FB002038BD3B840100BD7B010032
:103074000C8401002DE9F04F89B09B46DDE91483EF
:103084009DF84C700593169B04460D46179E0692B8
:103094000493002F00F09480042F0BD99A4940F236
:1030A400BF139A4A9A4810F005FB40F2BF119748A3
:1030B40010F0F9FA06F00803079310F04DFE06F03D
:1030C400020A024600284AD020469249FFF786FFAA
:1030D4008146BAF1000F08D016F0440F41D12A46B8
:1030E40020468D49FFF77AFF814406F0010353B16E
:1030F4008A4B204653F82720894B8A49002A08BF67
:103104001A46FFF76BFF06F00803002B55D0864BD9
:10311400204653F827208549FFF760FF0546069BA4
:103124002BB11A4620468249FFF758FF0544BBF1EC
:10313400000F05D05A4620467E49FFF74FFF05444D
:103144004D44B8F1000F4CD1049B002B61D1F3071F
:1031540000F1D38031462046FFF752FFC7E0814695
:10316400B7E7754B18680028BED0744B4FF47A7AD1
:103174001B684FF46161B5FBF3F5B5FBF0F300FB9D
:1031840013550AFB05F5B3FBF1F2B5FBF0FE4FF066
:103194003C0C01FB123100FB1E55B1FBFCF30AFB96
:1031A40005F5B5FBF0F50CFB131120460091CDE9B4
:1031B40001E56349FFF712FF96E706F00805AEE75D
:1031C400BBF1010F08D1B8F1000F1CD1049B002BF7
:1031D40000F08D8000251CE0B8F1000FF6D05948AE
:1031E40012E059484346224658490FF0BBFF0028D5
:1031F4000CDA574940F21923444A454810F05AFA68
:1032040040F2192153E750483D46EBE7049B002B5D
:103214006AD0DFF84091DFF840A1DDF81080314634
:10322400B8F1100F204628BF4FF010084FF0000BE4
:10323400FFF7E6FE5D4543DC059B514620461A78C0
:10324400FFF7CCFE4FF0010B1BF0070F03D14946EB
:103254002046FFF7C3FED84539D9059B5146204681
:1032640013F80B20FFF7BAFE0BF1010BBBF1100FA3
:10327400EAD14FF0000B20463849FFF7AFFE5A461B
:10328400059B20469A5C364B995C11F0970F08BF5A
:103294002E223449FFF7A2FE0BF1010BBBF1100FF4
:1032A4001AD01BF0070F03D149462046FFF796FEBC
:1032B400D8455A46E4D849462046FFF78FFEEBE747
:1032C40049462046FFF78AFE0BF1010BB2E7204680
:1032D4002549FFF783FEC7E7059B43440593049BF9
:1032E400B3EB0803049398D1002F7FF430AF20464A
:1032F40009B0BDE8F04F10F06DBD2046084A0949F9
:10330400FFF76CFE26E700BF708401000C84010007
:10331400BD7B01007C840100808401008473010072
:103324006B840100BE94010098730100A584010020
:10333400AB840100AF840100601600205C160020FD
:1033440089840100F33D010021300000314A00006E
:10335400B48401009FB50100BD840100C384010051
:103364005AC30100C58401009DB501002DE9F04157
:103374000F884B6805460C4690468E6886B0C7F3A6
:1033840082175BB1144A9B1A43F3CF01002920DB57
:103394002078C0F3C200FFF7F9FC0346214651F838
:1033A400102B6088C2F34A22002A01EB020408BFF2
:1033B40000210022C0F30B10CDE90408CDE902146A
:1033C4002846314601970092FFF754FE06B0BDE847
:1033D400F0810023E2E700BF6471010042F20F7341
:1033E40073B58B4228BF0B46056804460521684621
:1033F4000D4A0FF03FFC0646636828460B225B68C3
:103404000A4910F0DAFC63683246694628465B686C
:1034140010F0D3FC63681B2228465B68044910F053
:10342400CCFC02B070BD00BF7E900100E4840100BA
:10343400C884010000210123064A904206D8064AA6
:1034440001B901231360054B18607047012140083E
:103454005B00F2E740420F005C160020601600207B
:10346400014B002019607047781600200122024B9E
:1034740002481A7010F0AEBC95210020C8730100F8
:103484000148FFF7ABBF00BFC873010010B5064B7E
:103494000C461868FFF718FA2146BDE810400346A9
:1034A4000F220248184700BF78160020C873010095
:1034B400F8B50D460446064F4618B44201D12846D5
:1034C400F8BD14F8011BBB6801485B689847F4E732
:1034D400CC6E010008B5074813F0ADF948B90649A8
:1034E40006487F23064A10F0E5F87F21044810F0CF
:1034F400DAF808BDCC6E01004E850100BD7B0100E9
:10350400108501000449431E0F3013F8012F8A5C13
:1035140083421A70F9D1704782850100F0B50746DD
:10352400264E8DB001AD0C460FCE0FC50FCE0FC584
:1035340096E8070085E807003846002F39D0002CAC
:1035440039D0381F0246214610344B780D781B04BD
:1035540043EA0563CD7804312B4311F8025C8C42B5
:1035640043EA052342F8043FEFD10421144C8A07AF
:10357400036916D1C3F30742A55C1A0EA25C42EAA2
:103584000562C3F30725655DDBB2E35C42EA0542ED
:1035940042EA032221F0030330336B4453F82C3CFA
:1035A400534050F8042F013153402C290361DED1DC
:1035B40001200DB0F0BD2046FBE700BF887201007A
:1035C400828501002DE9F04F002703689DB0029326
:1035D4004368DFF8BCA103938368DDE902460493E2
:1035E400C36805930369DDE904BE06934369079341
:1035F4008369DDE9062C0893C36998460993089BFF
:103604000093CD590CAB2DBA5AF8049BDD514FEA07
:10361400F223A94483EAB213009D83EA72634B4404
:1036240025EA020502EA0C0985EA09052B4443440C
:1036340086EA0B054FEA743888EAB408254006EA9E
:103644000B0985EA090588EAB4580437A844402FD1
:1036540003EB0E054344DE46DDF8008040F088802D
:103664004FF0100A4B490A9151460AF1010A0DF133
:10367400700E0AF00F070EEB870757F8407C01F035
:103684000F094FEAB748019788EAF71801F10E07C6
:1036940007F00F070EEB870757F8407C09314FEA14
:1036A400F74E8EEA774ECDF82CE001F00F010DF1C4
:1036B400700E0EEB81010EEB890959F840EC51F8BC
:1036C400401CBAF1400F7144DDF804E088EADE08DA
:1036D400DDF82CE041448EEA972E714405EA020895
:1036E4004FEAF52E2CEA050787EA08078EEAB51E8D
:1036F400DDF828808EEA756E774458F804EF49F8AF
:10370400401C77440F4400994FEA733E394484EADD
:103714000607CDF828808EEAB30E07EA030704EA09
:1037240006088EEAB35E87EA080777440F4401EB84
:103734000B0ECDF800C0B34622D102993944016082
:1037440003991944049B416023448360059B3344DB
:10375400C360069B73440361079B2B444361089B2E
:1037640013448361099B6344C3611DB0BDE8F08FBA
:10377400B346CDF800C0264694461C462A4640E788
:10378400944626462A461C4675463B466CE700BFCF
:10379400D87301001474010010B50446C8B1702236
:1037A400002110F03FFB0B4B0B4A0C49C4E90023EA
:1037B4000B4B0C48C4E902130B4BC4E9040301206E
:1037C4000A4BA36103F17453A3F52303A3F69243B5
:1037D400E36110BD85AE67BB67E6096A72F36E3CB0
:1037E4003AF54FA57F520E518C68059BABD9831FC8
:1037F40001480FF0FDB800BFD874010038B5044685
:1038040018B90F4B0F485B6898476168B1F5683F7A
:1038140010D0B1F5680F0DD00B4DA9420AD011F4A8
:103824006861206807D0014608480BF0B1FC00230A
:103834002360656038BD142213F0B6FAF9E700BFBF
:1038440094030020828601002C5F5CA97C1B00206D
:1038540008B560B34368B3F5683F0ED0B3F5680F9D
:1038640018D0144A934220D000684FF0FF324FF032
:10387400FF330BF085FE58B115E001220368D3E84D
:10388400EF1F002903D1C3E8E02F0028F7D10AD1A4
:10389400002008BD0368084A1B7803F5807352F8BA
:1038A4002330002BF4D00548F3E70548F1E76FF423
:1038B400E040EEE72C5F5CA900000350E98FFFFFB6
:1038C400EA8FFFFF08B520B34368B3F5683F09D01A
:1038D400B3F5680F13D0114A93421DD000680BF062
:1038E4001FFF14E000220368D3E8EF1F012903D16E
:1038F400C3E8E02F0028F7D109D0094808BD00210A
:103904000368084A1B7803F5807342F823100020EB
:10391400F4E76FF4E040F1E70348EFE72C5F5CA9BC
:10392400E98FFFFF00000350EA8FFFFF10B5044644
:1039340018B91D4B1D485B6898476368B3F5683F29
:103944002FD0B3F5680F2CD0194A934219D12368AC
:1039540003BB4FF0FF324FF0FF33214615480BF005
:10396400ADFB08B923681BB90F4B13485B68984734
:1039740014220021206813F017FA4FF4686363607F
:1039840008E0B3F5683F0DD83A2B03D040F6BA628D
:103994009342DED1206812F09FFF636843F03A033C
:1039A400636010BD054AF3E794030020828601009A
:1039B4002C5F5CA97C1B0020A88601003A00003A19
:1039C40008B5064940231422054812F061FFBDE8FA
:1039D4000840044904480FF07DB800BF7C1600205D
:1039E4007C1B0020E0740100F474010001491022E2
:1039F4000A60704710ED00E072B6404080F3118811
:103A0400BFF36F8F01B5FEF7A7F9002802D0BFF30B
:103A14004F8F30BFBDE8014062B6BFF36F8F704770
:103A240072B6494081F3118801B5FEF795F9002873
:103A340002D0BFF34F8F20BFBDE8014080F311884F
:103A440062B670472DE9F04781460C4600AF002965
:103A54004CD0D1E900126E468AB0A3686D464FF08F
:103A6400050AA8462548C5E90723C5E9050148F81C
:103A740010AF002342464FF421512148FFF7BAF911
:103A8400D4E90312B5466369AD461E48C5E9072368
:103A9400C5E90501C5F810A0002342464FF42151A1
:103AA4001748FFF7A7F9B54688B0E3696D464FF0AC
:103AB400030AA846144AC5E9052348F810AF0023B1
:103AC40042464FF4C2510E48FFF794F9B546A36934
:103AD400AD460E4AC5F810A0C5E9052300234246A9
:103AE4004FF4C2510648FFF785F9B54621464846CA
:103AF4000BF014F8BD46BDE8F08700BFD586010081
:103B040044720100048701003387010042870100E9
:103B140040B2002807DB01234109034A00F01F00DB
:103B2400834042F82130704700E100E040B20028B1
:103B34000CDB01220649430900F01F0082402033B8
:103B440041F82320BFF34F8FBFF36F8F704700BF3F
:103B540000E100E0054B420953F82220012300F064
:103B64001F0003FA00F01040704700BF00E100E0BE
:103B740038B54B1C072B04460D460FD95C23104A5D
:103B8400104911480FF096FD294610480723224694
:103B94000FF090FD5C210A480FF085FD40B200282B
:103BA400ACBF00F160400A4A4FEA4313DBB2ABBF3B
:103BB40000F5614000F00F0080F80033135438BD65
:103BC40070870100A6870100BD7B0100C187010049
:103BD40014ED00E030BFFFF7FDBF00BF0B4A08B58E
:103BE4000B4B22F07F029A60BFF34F8FBFF36F8FAE
:103BF400D3F8882022F47002C3F888200BF064F80C
:103C04000DF07EFF00F044FC0BF0A8F8000000006B
:103C140000ED00E0094A0A49936809689867D96782
:103C240008494B6843F080534B60002383F31188A9
:103C3400BFF36F8F9368D86F704700BF441F002095
:103C4400FC79010000ED00E016498A684FF030006D
:103C54001044EFF3098C80E8F01F202080F31288D1
:103C6400BFF36F8F104F4FF000664A698A603E6061
:103C74004FF07404141920680C4C2060906F0023DA
:103C8400936780F3118802F1300090E8F01F8CF301
:103C9400098802F1000004B510F01EFDBDE80440DF
:103CA40070470000441F002004ED00E09C1B00202E
:103CB4001EF0040F0CBFEFF30880EFF30980816955
:103CC40011F8021C0229FFD001B510F0F6FC01BD69
:103CD40042F8203C009B0B4942F81C3C019B21F01C
:103CE400010142F8183C029B42F8081C42F8143CBB
:103CF4004FF0807342F8043C0023203A0265836746
:103D0400704700BFD50E00000A4B446F98600A4B01
:103D14001C60436E83F30B88104681F309880021ED
:103D240063B681F31188BFF36F8F00220023FDF780
:103D3400CFF800BF441F00209C1B002001B5EFF307
:103D44000580A0F110004FEAC0000449014409C9EC
:103D54009847BDE80140024908470000086F010088
:103D6400C53D0000114B124A2DE9F041D518013D23
:103D7400B5FBF3F5DFF83C805D430F4B074608EBDA
:103D84000304013CB4FBF3F403FB04540E1B304660
:103D94000A4912F0FCFF701942460021083E13F054
:103DA40003F87E6704F10800BDE8F081010000001B
:103DB4000000000004000000040000007C72010008
:103DC400044B99685869884203D003494FF08052E4
:103DD4000A607047441F002004ED00E02DE9F04123
:103DE40086B006460D4600AF02244F4B4FF4825175
:103DF4007B614E483C6107F1100210F071FC4C4BA2
:103E04009B6AD9067BD54B4B48484FF48251C7E98E
:103E1400044307F1100210F063FC1120444B9B6A29
:103E24001A070BD5444B41487B6102234FF482515E
:103E34003B6107F1100210F053FC12203C4CA36AC2
:103E44009B0723D5E8463D4B4FF482517B61022307
:103E540007F110023B61354810F042FC636BA26A23
:103E6400110612D588B06A4635493048C2E90513AF
:103E740003234FF4C25142F8103F10F031FCC54601
:103E84001EB1A36A23F08003A3621320284B9B6A0C
:103E9400DA070BD52B4B25487B6102234FF4825163
:103EA4003B6107F1100210F01BFC1420204B9B6AAD
:103EB4009B060BD5244B1D487B6102234FF4825192
:103EC4003B6107F1100210F00BFC1520184B9A6AA5
:103ED400D60602D49A6A940713D59B6AD90610D5DC
:103EE4001A4940F263131A4A1A480FF0E3FB1A48BE
:103EF4000FF0E0FB40F2631115480FF0D4FB1020E3
:103F04008CE70B4B18379A6A920642BF5A6A22F41E
:103F140000525A629A6A42F0FF029A6200232B709E
:103F2400BD46BDE8F08100BF018801004472010074
:103F340000ED00E0178801004A8801005D88010057
:103F4400758801008B880100AA880100138901008B
:103F5400D9880100BD7B01005D8901002DE9F04194
:103F640086B006460D4600AF0224474B4FF48251FB
:103F74007B6146483C6107F1100210F0B1FB444BF1
:103F84009B6AD9046DD5434B40484FF48251C7E92D
:103F9400044307F1100210F0A3FB17203C4B9B6A6B
:103FA4001A050BD53C4B39487B6102234FF48251EF
:103FB4003B6107F1100210F093FB1820344CA36A04
:103FC4009B0523D5E846354B30487B61022307F136
:103FD40010023B614FF4825110F082FBA36BA26A82
:103FE400100412D588B06A462D492848C2E9051341
:103FF40003234FF4C25142F8103F10F071FBC54641
:104004001EB1A36A23F40043A3621920204B9B6AC8
:1040140059050BD5234B1D487B6102234FF4825174
:104024003B6107F1100210F05BFB1A20184B9A6AEF
:10403400D20518D51C4B15487B6102234FF48251DD
:104044003B6107F1100210F04BFB1B20104A18379C
:10405400936A43F47F43936200232B70BD46BDE80B
:10406400F08116209AE79B6A9B04EFD50F4B074813
:104074007B6102234FF482513B6107F1100210F07F
:104084002FFB1C20E2E700BFC1890100447201003C
:1040940000ED00E0D78901004A880100E8890100A9
:1040A400018A0100168A0100318A0100AA880100F0
:1040B40010B586B002243E4B4FF482513D4804AA09
:1040C4000593049410F00CFB3B4B9B6A99016CD54F
:1040D4003A4B38484FF4825104AACDE9044310F016
:1040E400FFFA1E20344B9B6ADA010AD5344B31485F
:1040F400059302234FF4825104AA049310F0F0FABA
:104104001F202D4B9B6ADB020AD502242D4B294824
:104114004FF4825104AA0593049410F0E1FA204666
:10412400254B9B6A1C030AD5274B2248059302237F
:104134004FF4825104AA049310F0D2FA21201E4BAA
:104144009B6A59030AD5214B1A48059302234FF45D
:10415400825104AA049310F0C3FA2220164B9B6ADE
:104164009A030AD51A4B1348059302234FF482513C
:1041740004AA049310F0B4FA23200F4B9B6ADB03C8
:104184000AD5144B0B48059302234FF4825104AA19
:10419400049310F0A5FA2420074A936A6FEA0343B4
:1041A4006FEA1343936206B010BD1D209AE700BF67
:1041B400498A01004472010000ED00E0618A0100B7
:1041C400748A01008E8A0100B88A0100D68A01002F
:1041D400FB8A0100158B01002DE9F0438BB08D4B58
:1041E40004465868002600AFC0F3080386F311881C
:1041F400BFF36F8F02F07F45B5F17F4F0ED102F010
:104204000C05082D19D1844B4FF48251FB61022314
:104214008248BB6107F1180210F062FA80494FF43A
:104224008B63804A80480FF045FA80480FF042FAC9
:104234004FF48B617B480FF036FA15074CBF0C46E0
:104244000126002CEAD00022FA71DA1E092A00F2B3
:10425400C080DFE802F005B3B696BEBEBEBEBEB9EE
:10426400E9464FF00208724B07F11802FB614FF464
:1042740082516A48C7F8188010F032FA0023654D5D
:10428400FB71EB6A9A070BD56A4BC7E906834FF4B7
:104294008251624807F1180210F022FA002338E034
:1042A400EB6A002B01DA644BEFE7EB6A5B0078D52D
:1042B400624B07F11802C7E906834FF4825157484D
:1042C40010F00EFA6B69A26943F480736B61BFF35B
:1042D4004F8FBFF36F8F6B6932F8022C23F4807316
:1042E4006B61BFF34F8FBFF36F8F4DF602739A422A
:1042F40031D188B023686A4651494848C2E9051358
:1043040003234FF4C25142F8103F10F0E9F9CD46AF
:104314002368FA79DAB907F1080504F1200C2A4672
:1043240020686168083403C264451546F7D17A6A87
:10433400002E69D0C2F3080121B96FEA52226FEA54
:1043440042227A62184607F10801FFF77BFB2C37FB
:10435400BD46BDE8F083AB6ADBB22BB10120F91D89
:10436400FFF73CFD0346D4E7AB6A13F47F4F04D058
:104374000120F91DFFF7F2FDF4E7AB6AB3F5803FC6
:1043840002D3FFF795FEEDE72E4940F22A33254A82
:1043940025480FF08FF92C480FF08CF940F22A31A0
:1043A40048E7284940F22E331E4A1F480FF082F98D
:1043B40026480FF07FF940F22E313BE70020F91D2B
:1043C400CEE70020F91DD5E7214BFB610223BB6139
:1043D4005DE7204A6D4610F4F87F8AB01E4918BF85
:1043E40011466A46103BD3614FF400731B48138493
:1043F4001B4BC2E905014FF41151084842F8103F24
:1044040010F06EF9AD4649E722F4FF7222F0010282
:1044140097E700BF00ED00E06E8B010044720100DD
:10442400998B0100D9880100BD7B0100AC8B010090
:10443400EA8B0100018C0100228C0100308C010008
:104444004F8C0100BBAD01006B8C01008F8C01000F
:10445400BF8C0100558B0100408B0100E38C0100EF
:1044640004000001044B5A6942F010025A615A696F
:1044740042F480625A61704700ED00E0EFF3088077
:10448400EFF3098101B57246FFF7A6FE01BD00BF37
:10449400002320210348C2180133452B82F800135E
:1044A400F9D1704700E100E0002080F31488BFF3E5
:1044B4006F8F002080F30A8880F30B88FDF7BAFD24
:1044C40000200E490860BFF34F8F0D4880F3088821
:1044D40000F03EF8202080F311880A484FF4006170
:1044E400401880F30988EFF314800221084380F315
:1044F4001488BFF36F8FFFF771FB000094ED00E0A9
:10450400F0490020B03C0020BFF34F8F0549064B13
:10451400CA6802F4E0621343CB60BFF34F8F00BF5D
:10452400FDE700BF00ED00E00400FA050023184693
:104534000649D1F89020C2F30722934200DB70476A
:10454400C1F89830C1F8A0000133F6E700ED00E0AF
:1045540010B572B6002484F31388FFF7E7FF2346EF
:104564004FF0FF300C4A03F120010133102B42F8C5
:104574002100F8D100234FF0FF30074A03F1600116
:104584000133102B42F82100F8D162B6BFF34F8FEC
:10459400BFF36F8F10BD00BF00E100E0084B9B68C4
:1045A40083420BD1EFF3058343B1064B5A6842F0C3
:1045B40080525A605A6A22F400425A620DF066B977
:1045C400441F002000ED00E01FB5094C094A2346B2
:1045D4000121094800F02AF900230393074B012124
:1045E400E41A01A80193029400F044F904B010BD48
:1045F400000007200000002004750100600700206F
:1046040010B50C7A0B6804F01F0223F01F031A4341
:10461400CB68640923F01F03054943EA440343F0CC
:104624000103C1F89800C1F89C20C1F8A03010BD66
:1046340000ED00E080B500AF88B06A46074BC2E9E0
:104644000530032342F8103F00234FF4C2510448BD
:10465400FEF7D0FB6FF01500BD4680BDFA8C01005B
:10466400247201002DE9F04F144606464FF000096C
:1046740087B05F4D00AF79607B68994535DAD6F82D
:104684000480B8F1000F54D0B8F11F0F1BD918F0F3
:104694001F0F18D1D6F800B01BF01F0F13D15846C6
:1046A40010F021F8824608EB0B00013810F01BF8DB
:1046B40082451FD06FF0150A6C4688B06A464D4992
:1046C400C2E9051A05E06C4688B06A464A4BC2E95D
:1046D4000539032342F8103F00234FF4C2514748E1
:1046E400FEF788FBA5466FF0150420461C37BD462F
:1046F400BDE8F08F1AF1160FDED05445DCDDC5F8A5
:1047040098A0D5F89C00C5F898A0D5F8A02020F072
:104714001F0042F01F08D6E900211144904201F124
:10472400FF3B1ED1D84508D131465FFA8AF00FF01D
:10473400E3FF09F101090C369EE7C5F898A0D5F806
:104744009C3021F01F0103F01F030B433146C5F8D1
:104754009C30E0B20FF0D0FF10F1160FC3D0441C10
:10476400E7E7013AD845E0B222F01F02C5F898A065
:1047740008D1D5F8A030314603F01F031343C5F820
:10478400A030E7E7D5F8A01001F01F010A43C5F8EF
:10479400A02031460FF0B0FF10F1160FA3D0C5F8DA
:1047A40098A0D5F89C203B7C08F1FF3862F3040301
:1047B4003B74D5F8A0303A7C5B0863F347123A7433
:1047C400D6E900321344BB6023F01F03441C434466
:1047D400A3EB0B03E0B223F01F0307287B6102D98C
:1047E400FFF728FFB8E707F10801FFF709FFB6E76D
:1047F40000ED00E0438D0100208D010024720100D2
:104804000522044BC3F89420BFF34F8FBFF36F8F7F
:10481400704700BF00ED00E0BFF35F8F0022024B42
:10482400C3F89420704700BF00ED00E038B50C4D8C
:104834000C462A78FFF716FF287016300FD140F285
:104844001B13084A084909480EF034FF214608485A
:104854000EF030FF40F21B1102480EF024FF38BD69
:1048640096210020668D0100BBAD0100BD7B0100D7
:104874009D8D01002DE9F74F314E894605464FF0D5
:104884000008B3462F4FC84502DB03B0BDE8F08FE4
:10489400D5F804A0BAF1000F4CD02968084601915C
:1048A4000FF021FF019904460AEB010001380FF0D3
:1048B4001AFF84424FF01402234B15D002FB08F375
:1048C4006FF015024BF8032040F22B131F4A2049C6
:1048D40020480EF0EFFE49461F480EF0EBFE40F272
:1048E4002B111A480EF0DFFE14F1160F3460EBD0D2
:1048F4001978A142E8DD02FB08B0C7F89840C7F870
:104904009840D7F89C4000F10801007B64F3040050
:104914000871D7F8A0000C79400860F347140C71B3
:10492400D7F89C1021F01F017160D7F8A01021F076
:104934001F01316108F1010814360C35A3E700BFEB
:10494400A01B002000ED00E096210020668D0100F0
:10495400BBAD0100BD7B0100C98D010038B51F4D01
:104964002C68082C10D94FF4A9731D4A1D491E4800
:104974000EF0A0FE214608221C480EF09BFE4FF4C8
:10498400A97117480EF08FFE0020FFF745FF184B62
:10499400184AC3F8C020844217D1174B1C70FFF784
:1049A4002FFF134BD3F89030C3F30723082B13D0F6
:1049B40012494FF4DE730A4A0B480EF07BFE10488E
:1049C4000EF078FE4FF4DE71DBE7696801EB00114D
:1049D400FFF716FE0130DEE7002038BD1075010038
:1049E400668D0100BBAD0100BD7B0100F88D0100A7
:1049F40000ED00E0AAFF4400962100202C8E010067
:104A04007C8E010008B5024B1B689847002008BD46
:104A1400B41B0020034B044A1860937843F002034C
:104A240093707047B41B0020BC010020F0B587B020
:104A340007460E4614460021102268461D4612F011
:104A4400B3F902238DF80230054B2A462146684605
:104A5400CDE9047601930EF039F907B0F0BD00BF3B
:104A64003D47010008B50649064821F00701C1F198
:104A7400005202F5E022FCF71FFB002008BD00BF36
:104A8400476A0020F05D00201022174B70B5C3F870
:104A940040244FF47F03D3F83021D3F83431072A6C
:104AA4001BD1023B032B02D8104AD35CABB14FF0AD
:104AB4005024012600250520C4F81866C4F81456AD
:104AC40011F065F93046C4F8146611F060F9C4F8C1
:104AD4001456C4F81856002070BD4FF0502300221D
:104AE400C3F81426F7E700BF00300050AC8E010075
:104AF4000E4B402928BF402170B51D460C4C46186A
:104B0400B04203F1020304D1002305F81130074831
:104B140070BD02781209A25C03F8022C10F8012B74
:104B240002F00F02A25C03F8012CE9E7B521002092
:104B34000F8F010030B503788BB0044607AD032B0B
:104B440021D8DFE803F0021A1C1E12492846FBF79D
:104B540071FC059563781E210493A3780E4A039390
:104B6400E3780E4802932379019363790093A37940
:104B74000EF080F809480BB030BD0949E6E7094951
:104B8400E4E70949E2E70A212846084A0EF072F8E8
:104B9400DFE700BFCA8E0100EC8E010097210020E0
:104BA400D18E0100D88E0100E28E010092A1010095
:104BB40030B50024094D0A4B85B02846029303946E
:104BC4000BF0B4FA02AB284600934FF4A3620A2315
:104BD40004490BF0C5FA204605B030BD900F002003
:104BE400208F0100402E0020014601480BF0DABB63
:104BF400900F0020037830B5012B13D0022B27D05F
:104C04007BB90A46184B03F1100453F8045BA34222
:104C140042F8045BF9D11B78137043884B731B0A69
:104C24008B7330BD0A46104B03F1100453F8045B38
:104C3400A34242F8045BF9D11B7813704368C3F3B1
:104C440007224B731B0CCB731B0A8A730B74E8E7A4
:104C540000F1100350F8042B984241F8042BF9D1C9
:104C640003780B70DDE700BF298F010038B50546D6
:104C7400012D1046194610D0032D1AD0052D18D039
:104C84000E493E230E4A0F480EF014FD0E480EF056
:104C940011FD3E210A480EF006FD0C4810F03DFEC1
:104CA400044620B101210C3006F02CF8257620466C
:104CB40038BD02460B460648F0E700BF698F010085
:104CC4003A8F0100BD7B0100AE8F01008C060020ED
:104CD400F00500200246002070B50B460A49D1E8D1
:104CE400EF4FC1E8E50F002DF9D124B9BDE87040BC
:104CF4000120FFF7BBBF01212082217604F10C00C3
:104D040006F000F8204670BD3801002070B5044656
:104D14000F2C0D461046194605D80D2C0DD9BDE8AB
:104D24007040FFF7D7BF132C07D10C4810F0F5FDE6
:104D3400044638B90024204670BD02460B4645B1EE
:104D44000748F3E701210C3005F0DCFF012323764B
:104D5400F1E70120BDE87040FFF788BF2807002075
:104D64005806002070B58EB06C4606460A4D0D2ECE
:104D74000FCD0FC40FCD0FC40FCD0FC495E80300A2
:104D840084E803009DBF0EAB03EB860656F8380C8F
:104D940002480EB070BD00BFB4720100D68F01008E
:104DA40038B5C368B3F801401B786BB90F212046AE
:104DB40002F0DEFD054640B9084B1A8822B96FEAB5
:104DC40004506FEA1050188038BD012102F0CEFC67
:104DD4002846BDE8384002F099BC00BF702100208D
:104DE40010B5084C0146052294F86F0002F064FFE8
:104DF40038B994F86F000422BDE81040024902F06B
:104E04005BBF10BD00000020B08E010080B5C368F8
:104E140000AF88B06A461B7806490748C2E9051303
:104E240003234FF4C45142F8103F0FF025FDBD4653
:104E340080BD00BFDE8F0100AC7101007FB5064B61
:104E44004FF4825105930223044804AA04930FF0FB
:104E540013FD07B05DF804FB06900100AC7101007E
:104E640098B5014600AF0D4805F09AFD0C490D4870
:104E740011F0CFFD00280EDA6C4688B06A460A4B62
:104E84004FF4C251C2E905300323084842F8103FE9
:104E94000FF0F2FCA546BD4698BD00BF3C010020C2
:104EA40008020020B010002020900100AC71010025
:104EB4000B46B0B50D8A00AF04462946D868FFF703
:104EC40017FE8AB06A46094BC2E90750C2E90534A5
:104ED40040F202439384064B4FF43251054842F8A2
:104EE400103F0FF0C9FCBD46B0BD00BF3D900100AE
:104EF40005000001AC71010080B5012100AF0C3048
:104F040005F060FF88B06A46037806490648C2E99E
:104F1400051303234FF4C25142F8103F0FF0ACFCC9
:104F2400BD4680BD5F900100AC7101002DE9F041E8
:104F3400C56800AF2E78B6B9B5F801800F21404698
:104F440002F016FD044688B96C4688B06A460C4BDC
:104F54004FF4C251C2E9053803230A4842F8103F0E
:104F64000FF08AFCA546BD46BDE8F081EB783146DA
:104F7400437202F0FBFB204602F0C8FBF3E700BFDC
:104F840081900100AC710100B0B5C36800AF1C880A
:104F94000121204602F0ECFC80B96D4688B06A46D7
:104FA400084B4FF4C251C2E905340323064842F8C2
:104FB400103F0FF061FCAD46BD46B0BD02F0A6FB4C
:104FC400FAE700BFA7900100AC710100B0B5C36857
:104FD40000AFB3F801400121204602F0C9FC80B9BA
:104FE4006D4688B06A46084B4FF4C251C2E9053495
:104FF4000323064842F8103F0FF03EFCAD46BD4681
:10500400B0BD02F083FBFAE7A7900100AC71010088
:10501400B0B5044600AF02EBC303934203D120466C
:10502400FFF746FF18E0104610F8085BA54219D1B7
:105034000B8A5078984211D96D4688B06A460A495D
:10504400D461C2E9051304234FF40151074842F81F
:10505400103F0FF011FCAD46BD46B0BD0846536885
:105064009847F9E70246D8E7CB900100AC710100FC
:105074002DE9F0415D4800AF05F0FCFC0446002832
:105084007CD0037E012B7CD0032B40F0A980038AC3
:10509400032B0CD84FF40073554A564956480EF06A
:1050A40009FB404080F311884FF0030002DF042124
:1050B40004F10C0005F086FE4588B0F80080204617
:1050C40005F040FB4D4EC8F30B0326F81030238A3D
:1050D4009D4213D06E4688B06A464949D561C2E9FB
:1050E400051304234FF40151464842F8103F0FF0D2
:1050F400C3FBB546204605F03FFD26E0204605F0FB
:1051040021FB0F2136F8100002F032FC0546A0B94D
:10511400204605F017FB6D4688B036F810306A4615
:105124003949C2E9051303234FF4C251354842F803
:10513400103F0FF0A1FBAD46DCE721464FEA1832E1
:1051440002F056F9284602F0E1FA304BD3F83C312C
:10515400A3B12F492F4811F05CFC00280EDA6C46ED
:1051640088B06A462C4B4FF4C251C2E90530032380
:10517400244842F8103F0FF07FFBA546BD46BDE82A
:10518400F081038A012B0CD840F65D23184A194993
:1051940019480EF08FFA404080F311884FF0030055
:1051A40002DF022104F10C0005F00CFE0546007834
:1051B4000FF038FB83070CD440F661230C4A1749DF
:1051C4000D480EF077FA404080F311884FF0030049
:1051D40002DF04232146124A2878FFF719FF89E7E2
:1051E4006D4688B06A460F499BE700BF3C0100202A
:1051F400ED90010021910100BD7B0100722100208E
:105204003A910100AC7101005E91010000000020A0
:1052140008020020B01000202090010080910100BD
:10522400D0750100AE91010010B5012104460C3087
:1052340005F0C8FD2146BDE810400723014A007867
:10524400FFF7E6BEF0750100F8B5C5680121B5F8B1
:10525400016000AF304602F08BFB044680B96C4617
:1052640088B06A46104B4FF4C251C2E90536032395
:105274000E4842F8103F0FF0FFFAA546BD46F8BDB0
:105284002B783BB9D5F80330C0F8B530D5F80730E2
:10529400C0F8B9304FF48051201D0FF0D6FA2046E3
:1052A40002F034FAEAE700BFA7900100AC710100F4
:1052B4002DE9F843064600AF907A8846144605F077
:1052C40039FA414D854218D0A47AE846204605F0C3
:1052D40031FA8AB06A463D4BC2E90740C2E9053655
:1052E400062355624FF44251394842F8103F0FF0FB
:1052F400C3FAC546BD46BDE8F883204605F022FA48
:105304004FF00C09334D09FB00504388B34216D0CB
:10531400204605F017FA09FB00506C4688B06A462F
:105324004388D36104232C492948C2E905164FF464
:10533400025142F8103F0FF09FFAA546DAE7274ED4
:10534400D6F8380120B105F017FC0023C6F838312F
:10535400204605F0F7F90C2606FB00504368ABB174
:10536400B8F1000F12D1204605F0ECF9012106FB3B
:1053740000504268D2E90003127A03F01F06B140DC
:105384005B09DAB100EB83000FF05FFA204605F009
:10539400D9F90C2606FB00508368002BAAD02046BE
:1053A40005F0D0F9704305F80080204605F0CAF9ED
:1053B40006FB0055A8680AF045FB9BE7C94300EBD0
:1053C40083000FF05CFAE1E7F4060020C2910100CB
:1053D400AC710100B81B0020F7910100000000200F
:1053E40038B5042104460C3005F0ECFC457801780E
:1053F40022464088FFF75CFF25B1BDE838400248EB
:105404000AF020BB38BD00BF2001002038B50321BD
:1054140004460C3005F0D6FCE3680578224619787A
:10542400B0F80100FFF744FF25B1BDE83840024859
:105434000AF008BB38BD00BF200100202DE9F04F61
:1054440087B00123D0F80C80018A98F8004000AF9F
:1054540003EB84038B4240F28D806D468AB06A462A
:10546400C2E90731052346484FF42151C2E9050436
:10547400444842F8103F0FF0FFF9AD461C37BD46D3
:10548400BDE8F08F6C4688B06A463F4B4FF4C2517A
:10549400C2E9053B03233B4842F8103F0FF0ECF907
:1054A400A546013598F800309D42E7DA08EB8503FC
:1054B400B3F801B00F215846B3F8036002F058FA6C
:1054C40004460028DED000F1280B46B34FF0200339
:1054D400EFF3118283F31288BFF36F8FE3696BB12B
:1054E400013BE36182F31188BFF36F8F204601F023
:1054F400FBFE013E0AF0A6FAB6B2E6E7636993B989
:1055040082F31188BFF36F8F02234FF482511D4839
:1055140007F11002C7F814A03B610FF0ADF9204663
:1055240002F0F4F8BDE7A16918688B42606108BF16
:10553400A06182F31188BFF36F8F4FF02002EFF365
:10554400118182F31288BFF36F8FDA68E261C3F8C6
:105554000C90C3F80090626A4AB9C4E9083381F335
:105564001188BFF36F8F58460AF0DAFDBEE7136067
:105574006362F4E70025DFF814A0A94692E700BFB0
:105584002A920100AC710100549201007092010052
:10559400F0B583B0C5680121B5F8016000AF3046AD
:1055A40002F0E6F9044688B96C4688B06A462C4B8A
:1055B4004FF4C251C2E9053603232A4842F8103F8A
:1055C4000FF05AF9A5460C37BD46F0BD2B78061DE1
:1055D4001A2B17D1C378012B28D14FF480613046A0
:1055E4000FF033F942050DD4D4F8A83039463B60A6
:1055F400D4F8B03020467B6002F05AFE204602F018
:1056040085F8E0E72B788BB9B5F80330A4F8A63019
:10561400B5F80530A4F8AC30B5F80730A4F8AE30CE
:105624006FF4807130460FF02AF914E0D6E8AF3FEA
:10563400DB05F5D52B78202BF2D194F8B430002B70
:10564400EED0013B84F8B4304FF42032002304F14F
:1056540060000AF01DFF204602F01AFACEE700BFF0
:10566400A7900100AC71010010B5C1E900239DF8B9
:1056740008300C460B7205F065F80C22024B02FB55
:1056840000335C6010BD00BFB81B00202DE9F0475B
:105694004FF0FF3206464FF0FF331E480F4610F01E
:1056A4003CF9044658B91C491C484FF485731C4AFC
:1056B4000EF000F84FF4857119480DF0F4FF4FF027
:1056C400000800F10C0A0121504605F01BFB20469E
:1056D40084F8188005F036F84FF00C09114D09FBD9
:1056E40000504680204605F02DF809FB0050C0F814
:1056F4000880204605F026F809FB00550321504692
:10570400C5F8048005F07CFB068087702046BDE860
:10571400F08700BFF40600207BA10100BD7B0100DF
:10572400ED900100B81B00202DE9F04387B08046BE
:1057340015460C4600AF21B9FFF7A8FF0446002820
:105744005DD001220021384611F0FFF8204604F014
:10575400F9FF0C23DFF8B49003FB00908760204628
:1057640005F04EFA01462A4805F0E0F94FF4A0226C
:10577400002338460AF0AAF9064688B14FF4A97303
:10578400244A254925480DF095FF324641462448D0
:105794000DF090FF404080F311884FF0030002DFCA
:1057A400204604F0CFFF0C23584319F80060F6B1EB
:1057B4006D4688B06A461B4BD661C2E9053804239E
:1057C4004FF40251184842F8103F0FF055F82046A4
:1057D400AD4605F0D1F9092E14D00D2E0CBF6FF093
:1057E4000B006FF004001C37BD46BDE8F08315B113
:1057F4002C600020F7E7204605F0BEF9F9E76FF0CA
:105804006800F0E76FF06E00EDE700BFB81B002002
:1058140044010020ED90010051800100BD7B010096
:1058240087920100B3920100AC71010070B588B099
:1058340006460D4642F22F00002101AAFFF774FF2D
:10584400044660B10B4B4FF48251079302230A487C
:1058540006AA06930FF010F8204608B070BD019810
:10586400C368B3F801203280B3F803302B8005F00D
:1058740083F9F1E7CF920100AC710100F7B5144B45
:10588400054693F99B300C46002B1DDA14B92046CB
:1058940003B0F0BD082C4FF0000142F2180001AA39
:1058A400264628BF0826FFF73FFF0028F0D1019FB6
:1058B4003246F9682846013111F069FA384605F094
:1058C4005BF93544A41BE1E76FF08500E0E700BF16
:1058D400000000202DE9F0478CB00026A94BB0F859
:1058E4000180198848F470420478914208BF1E80F0
:1058F400054608BF012602AFA4B33C2C22D101F017
:1059040079FA6FF0800110300EF0B9FF0020FFF734
:1059140067FA054670B99C4B4FF482517B620223AF
:105924009A483B6207F120020EF0A6FF2837BD46D5
:10593400BDE8F0874472002101F018FF284601F009
:10594400E5FEF3E76D4688B002AA914B4FF4C451CB
:10595400C2E9053403238D4842F8103F0EF08CFF52
:10596400AD46E3E7C37800F10409012B08BF894B76
:10597400484608BF93F86F400EF050FF494640B3C5
:1059840007F110000EF03FFF05F1110107F10900C6
:105994000EF066FF01233B72EB78012B27D04846BB
:1059A400FFF7C8F86C4688B002AA7B4B4FF4E2516B
:1059B400C2E905304FF400739383784B734842F87F
:1059C400103F0EF059FF1321A54640460EF05FFF2D
:1059D400ACE720460FF016F8014607F110000EF070
:1059E40044FF494607F108000EF03FFFD4E707F1F2
:1059F4001000FFF7F5F9EB780446012B0AD101F00A
:105A0400F9F982466FF0800110300EF038FF5046ED
:105A14000FF04FF8002CC2D020460022B5F8013018
:105A240007F1100120F8903B0EF01FFFB5F8173076
:105A3400A4F8A630B5F81930A4F8AC30B5F81B308A
:105A4400A4F8AE30EB786272012BE37016D107F143
:105A5400080104F197000EF008FF01F0CBF9217A58
:105A64004C4AC1EBC101114404F19E000EF0FDFE4D
:105A7400D2F8E4305D0601D501F0C0F907212046D3
:105A840001F074FE1EB10121204601F06FFE204694
:105A94000FF043F8A37A072B6ED1231DD3E8AF3F51
:105AA40013F4805F3B4D29D1E3781BB195F8D830CE
:105AB400180723D5022142F21600FFF7E7FD064638
:105AC40000285BD002210C3005F09AF923880022CB
:105AD4000380314642F21600FFF726FE70B16E468F
